:020000040800F2
:100000000000022041BD000869BC00086BBC00086C
:100010006DBC00086FBC000871BC00080000000047
:1000200000000000000000000000000073BC000899
:1000300075BC00080000000077BC000879BC00080F
:1000400091BD000891BD000891BD000891BD000858
:1000500091BD000891BD000891BD000891BD000848
:1000600091BD000891BD000891BD000891BD000838
:1000700091BD000891BD000891BD000891BD000828
:1000800091BD000891BD000891BD000891BD000818
:1000900091BD000891BD000891BD000891BD000808
:1000A00091BD000891BD000891BD000891BD0008F8
:1000B00091BD000891BD000891BD000891BD0008E8
:1000C00091BD000891BD000891BD000891BD0008D8
:1000D00091BD000891BD000891BD000891BD0008C8
:1000E00091BD000891BD000891BD000891BD0008B8
:1000F00091BD000891BD000891BD000891BD0008A8
:1001000091BD000891BD000891BD000891BD000897
:1001100091BD000891BD000891BD000881BC000898
:1001200091BD000891BD000891BD000891BD000877
:1001300091BD0008000000000000000091BD000813
:1001400091BD000891BD000891BD000891BD000857
:1001500091BD000891BD000891BD000891BD000847
:1001600091BD000891BD000891BD000891BD000837
:1001700091BD000891BD00080000000000000000D3
:0801800091BD000891BD0008CB
:1001C0000348044B834202D0034B03B118477047E6
:1001D000C0090020C00900200000000005480649B1
:1001E0000B1AD90F01EBA301491002D0034B03B145
:1001F00018477047C0090020C00900200000000017
:1002000010B5064C237843B9FFF7DAFF044B13B15E
:100210000448AFF300800123237010BDC009002003
:100220000000000088D5000808B5044B1BB1044944
:100230000448AFF30080BDE80840CFE700000000AD
:10024000C409002088D500084FF0FF0C1CEAD052EA
:100250001EBF1CEAD15392EA0C0F93EA0C0F6FD029
:100260001A4480EA010C400218BF5FEA41211ED007
:100270004FF0006343EA501043EA5111A0FB0131F3
:100280000CF00040B1F5000F3EBF490041EAD371C8
:100290005B0040EA010062F17F02FD2A1DD8B3F144
:1002A000004F40EBC25008BF20F00100704790F0B3
:1002B000000F0CF0004C08BF49024CEA502040EA05
:1002C00051207F3AC2BFD2F1FF0340EAC2507047CB
:1002D00040F400004FF00003013A5DDC12F1190F09
:1002E000DCBF00F000407047C2F10002410021FA7B
:1002F00002F1C2F1200200FA02FC5FEA310040F193
:10030000000053EA4C0308BF20EADC70704792F00B
:10031000000F00F0004C02BF400010F4000F013A43
:10032000F9D040EA0C0093F0000F01F0004C02BF3E
:10033000490011F4000F013BF9D041EA0C018FE7AD
:100340000CEAD15392EA0C0F18BF93EA0C0F0AD0B3
:1003500030F0004C18BF31F0004CD8D180EA0100D9
:1003600000F00040704790F0000F17BF90F0004F72
:10037000084691F0000F91F0004F14D092EA0C0F54
:1003800001D142020FD193EA0C0F03D14B0218BFE7
:10039000084608D180EA010000F0004040F0FE402D
:1003A00040F40000704740F0FE4040F440007047C9
:1003B00081F0004102E000BF83F0004330B54FEA16
:1003C00041044FEA430594EA050F08BF90EA020F83
:1003D0001FBF54EA000C55EA020C7FEA645C7FEA16
:1003E000655C00F0E2804FEA5454D4EB5555B8BF39
:1003F0006D420CDD2C4480EA020281EA030382EAAA
:10040000000083EA010180EA020281EA0303362D3B
:1004100088BF30BD11F0004F4FEA01314FF4801C0E
:100420004CEA113102D0404261EB410113F0004F20
:100430004FEA03334CEA133302D0524263EB4303D7
:1004400094EA050F00F0A780A4F10104D5F1200E75
:100450000DDB02FA0EFC22FA05F2801841F10001D0
:1004600003FA0EF2801843FA05F359410EE0A5F1A4
:1004700020050EF1200E012A03FA0EFC28BF4CF0D5
:10048000020C43FA05F3C01851EBE37101F000458B
:1004900007D54FF0000EDCF1000C7EEB00006EEB98
:1004A0000101B1F5801F1BD3B1F5001F0CD3490822
:1004B0005FEA30004FEA3C0C04F101044FEA445279
:1004C00012F5800F80F09A80BCF1004F08BF5FEA00
:1004D000500C50F1000041EB045141EA050130BDE0
:1004E0005FEA4C0C404141EB0101013C28BFB1F5F2
:1004F000801FE9D291F0000F04BF01460020B1FA3D
:1005000081F308BF2033A3F10B03B3F120020CDA0F
:100510000C3208DD02F1140CC2F10C0201FA0CF0ED
:1005200021FA02F10CE002F11402D8BFC2F1200C52
:1005300001FA02F120FA0CFCDCBF41EA0C01904008
:10054000E41AA2BF01EB0451294330BD6FEA040451
:100550001F3C1CDA0C340EDC04F11404C4F120023C
:1005600020FA04F001FA02F340EA030021FA04F34E
:1005700045EA030130BDC4F10C04C4F1200220FAA5
:1005800002F001FA04F340EA0300294630BD21FAE3
:1005900004F0294630BD94F0000F83F4801306BFA9
:1005A00081F480110134013D4EE77FEA645C18BF9D
:1005B0007FEA655C29D094EA050F08BF90EA020F34
:1005C00005D054EA000C04BF1946104630BD91EA2C
:1005D000030F1EBF0021002030BD5FEA545C05D12F
:1005E0004000494128BF41F0004130BD14F580046E
:1005F0003CBF01F5801130BD01F0004545F0FE41E2
:1006000041F470014FF0000030BD7FEA645C1ABF16
:10061000194610467FEA655C1CBF0B46024650EA4D
:10062000013406BF52EA033591EA030F41F4002179
:1006300030BD00BF90F0000F04BF0021704730B5FF
:100640004FF4806404F132044FF000054FF00001D4
:1006500050E700BF90F0000F04BF0021704730B595
:100660004FF4806404F1320410F0004548BF40426A
:100670004FF000013EE700BF42004FEAE2014FEABF
:1006800031014FEA02701FBF12F07F4393F07F4F9A
:1006900081F06051704732F07F4208BF704793F09D
:1006A0007F4F04BF41F40021704730B54FF46074B0
:1006B00001F0004521F000411CE700BF50EA0102B3
:1006C00008BF704730B54FF000050AE050EA01025C
:1006D00008BF704730B511F0004502D5404261EBCC
:1006E00041014FF4806404F132045FEA915C3FF40D
:1006F000D8AE4FF003025FEADC0C18BF03325FEAAA
:10070000DC0C18BF033202EBDC02C2F1200300FA5A
:1007100003FC20FA02F001FA03FE40EA0E0021FA7F
:1007200002F11444BDE600BF70B54FF0FF0C4CF46D
:10073000E06C1CEA11541DBF1CEA135594EA0C0F1F
:1007400095EA0C0F00F0DEF82C4481EA030621EA5A
:100750004C5123EA4C5350EA013518BF52EA033595
:1007600041F4801143F4801338D0A0FB02CE4FF047
:100770000005E1FB02E506F00042E0FB03E54FF077
:100780000006E1FB03569CF0000F18BF4EF0010E6F
:10079000A4F1FF04B6F5007F64F5407404D25FEA6B
:1007A0004E0E6D4146EB060642EAC62141EA55511E
:1007B0004FEAC52040EA5E504FEACE2EB4F1FD0C60
:1007C00088BFBCF5E06F1ED8BEF1004F08BF5FEADE
:1007D000500E50F1000041EB045170BD06F0004690
:1007E00046EA010140EA020081EA0301B4EB5C043D
:1007F000C2BFD4EB0C0541EA045170BD41F4801135
:100800004FF0000E013C00F3AB8014F1360FDEBF59
:10081000002001F0004170BDC4F10004203C35DA35
:100820000C341BDC04F11404C4F1200500FA05F3B8
:1008300020FA04F001FA05F240EA020001F0004259
:1008400021F0004110EBD37021FA04F642EB0601CF
:100850005EEA430E08BF20EAD37070BDC4F10C04F9
:10086000C4F1200500FA04F320FA05F001FA04F2BD
:1008700040EA020001F0004110EBD37041F10001A9
:100880005EEA430E08BF20EAD37070BDC4F12005B4
:1008900000FA05F24EEA020E20FA04F301FA05F21C
:1008A00043EA020321FA04F001F0004121FA04F2C4
:1008B00020EA020000EBD3705EEA430E08BF20EA94
:1008C000D37070BD94F0000F0FD101F000464000CE
:1008D00041EB010111F4801F08BF013CF7D041EA50
:1008E000060195F0000F18BF704703F00046520054
:1008F00043EB030313F4801F08BF013DF7D043EA25
:100900000603704794EA0C0F0CEA135518BF95EADA
:100910000C0F0CD050EA410618BF52EA4306D1D161
:1009200081EA030101F000414FF0000070BD50EA80
:10093000410606BF1046194652EA430619D094EA0A
:100940000C0F02D150EA013613D195EA0C0F05D1F4
:1009500052EA03361CBF104619460AD181EA030148
:1009600001F0004141F0FE4141F470014FF0000000
:1009700070BD41F0FE4141F4780170BD70B54FF09B
:10098000FF0C4CF4E06C1CEA11541DBF1CEA13551B
:1009900094EA0C0F95EA0C0F00F0A7F8A4EB0504FD
:1009A00081EA030E52EA03354FEA013100F08880F4
:1009B0004FEA03334FF0805545EA131343EA1263BD
:1009C0004FEA022245EA111545EA10654FEA002672
:1009D0000EF000419D4208BF964244F1FD0404F52B
:1009E000407402D25B084FEA3202B61A65EB030587
:1009F0005B084FEA32024FF480104FF4002CB6EB44
:100A0000020E75EB030E22BFB61A754640EA0C00C3
:100A10005B084FEA3202B6EB020E75EB030E22BF03
:100A2000B61A754640EA5C005B084FEA3202B6EB44
:100A3000020E75EB030E22BFB61A754640EA9C0003
:100A40005B084FEA3202B6EB020E75EB030E22BFD3
:100A5000B61A754640EADC0055EA060E18D04FEA91
:100A6000051545EA16754FEA06164FEAC30343EA31
:100A700052734FEAC2025FEA1C1CC0D111F4801FFE
:100A80000BD141EA00014FF000004FF0004CB6E7F7
:100A900011F4801F04BF01430020B4F1FD0C88BF96
:100AA000BCF5E06F3FF6AFAEB5EB030C04BFB6EBA1
:100AB000020C5FEA500C50F1000041EB045170BD94
:100AC0000EF0004E4EEA113114EB5C04C2BFD4EBC1
:100AD0000C0541EA045170BD41F480114FF0000E45
:100AE000013C90E645EA060E8DE60CEA135594EAC1
:100AF0000C0F08BF95EA0C0F3FF43BAF94EA0C0FC4
:100B00000AD150EA01347FF434AF95EA0C0F7FF438
:100B100025AF104619462CE795EA0C0F06D152EA8C
:100B200003353FF4FDAE1046194622E750EA410670
:100B300018BF52EA43067FF4C5AE50EA41047FF481
:100B40000DAF52EA43057FF4EBAE12E74FEA4102E4
:100B500012F5001215D211D56FF47873B3EB62520F
:100B600012D94FEAC12343F0004343EA505311F036
:100B7000004F23FA02F018BF404270474FF00000C8
:100B8000704750EA013005D111F0004008BF6FF006
:100B9000004070474FF00000704700BF4FEA41022D
:100BA000B2F1E04324BFB3F5001CDCF1FE5C0DD9CB
:100BB00001F0004C4FEAC0024CEA5070B2F1004F15
:100BC00040EB830008BF20F00100704711F0804F18
:100BD00021D113F13872BCBF01F00040704741F4DD
:100BE00080114FEA5252C2F11802C2F1200C10FAE1
:100BF0000CF320FA02F018BF40F001004FEAC123C5
:100C00004FEAD32303FA0CFC40EA0C0023FA02F368
:100C10004FEA4303CCE77FEA625307D150EA01333E
:100C20001EBF4FF0FE4040F44000704701F000400E
:100C300040F0FE4040F40000704700BF80F00040EC
:100C400002E000BF81F0004142001FBF5FEA4103A4
:100C500092EA030F7FEA226C7FEA236C6AD04FEAA4
:100C60001262D2EB1363C1BFD218414048404140E9
:100C7000B8BF5B42192B88BF704710F0004F40F49B
:100C8000000020F07F4018BF404211F0004F41F4B7
:100C9000000121F07F4118BF494292EA030F3FD083
:100CA000A2F1010241FA03FC10EB0C00C3F1200396
:100CB00001FA03F100F0004302D5494260EB400025
:100CC000B0F5000F13D3B0F1807F06D340084FEA90
:100CD000310102F10102FE2A51D2B1F1004F40EB85
:100CE000C25008BF20F0010040EA030070474900ED
:100CF00040EB0000013A28BFB0F5000FEDD2B0FA8A
:100D000080FCACF1080CB2EB0C0200FA0CF0AABFAC
:100D100000EBC25052421843BCBFD040184370474A
:100D200092F0000F81F4000106BF80F40000013250
:100D3000013BB5E74FEA41037FEA226C18BF7FEA27
:100D4000236C21D092EA030F04D092F0000F08BF69
:100D50000846704790EA010F1CBF0020704712F050
:100D60007F4F04D1400028BF40F00040704712F18F
:100D700000723CBF00F50000704700F0004343F0F4
:100D8000FE4040F4000070477FEA226216BF08462A
:100D90007FEA23630146420206BF5FEA412390EAED
:100DA000010F40F4800070474FF0000304E000BFE3
:100DB00010F0004348BF40425FEA000C08BF704794
:100DC00043F0964301464FF000001CE050EA010258
:100DD00008BF70474FF000030AE000BF50EA01026D
:100DE00008BF704711F0004302D5404261EB41015A
:100DF0005FEA010C02BF84460146002043F0B6437F
:100E000008BFA3F18053A3F50003BCFA8CF2083AA3
:100E1000A3EBC25310DB01FA02FC634400FA02FCAC
:100E2000C2F12002BCF1004F20FA02F243EB0200B3
:100E300008BF20F00100704702F1200201FA02FC15
:100E4000C2F1200250EA4C0021FA02F243EB020008
:100E500008BF20EADC7070474FF0FF3C06E000BF9F
:100E60004FF0010C02E000BF4FF0010C4DF804CD33
:100E70004FEA40024FEA41037FEA226C18BF7FEA43
:100E8000236C11D001B052EA530C18BF90EA010F45
:100E900058BFB2EB030088BFC81738BF6FEAE170D4
:100EA00018BF40F0010070477FEA226C02D15FEA70
:100EB000402C05D17FEA236CE4D15FEA412CE1D0DC
:100EC0005DF8040B704700BF844608466146FFE7A3
:100ED0000FB5FFF7C9FF002848BF10F1000F0FBD85
:100EE0004DF808EDFFF7F4FF0CBF012000205DF87E
:100EF00008FB00BF4DF808EDFFF7EAFF34BF012003
:100F000000205DF808FB00BF4DF808EDFFF7E0FF9B
:100F100094BF012000205DF808FB00BF4DF808EDEC
:100F2000FFF7D2FF94BF012000205DF808FB00BF4F
:100F30004DF808EDFFF7C8FF34BF012000205DF831
:100F400008FB00BF4FEA4002B2F1FE4F0FD34FF053
:100F50009E03B3EB12620DD94FEA002343F0004326
:100F600010F0004F23FA02F018BF404270474FF0D4
:100F70000000704712F1610F01D1420205D110F05B
:100F8000004008BF6FF0004070474FF0000070470E
:100F900042000ED2B2F1FE4F0BD34FF09E03B3EBE3
:100FA000126209D44FEA002343F0004323FA02F00F
:100FB00070474FF00000704712F1610F01D14202FB
:100FC00002D14FF0FF3070474FF00000704700BF74
:100FD00053B94AB9002908BF00281CBF4FF0FF31A0
:100FE0004FF0FF3000F074B9ADF1080C6DE904CE9C
:100FF00000F006F8DDF804E0DDE9022304B07047F4
:101000002DE9F047089D04468E46002B4DD18A42BB
:10101000944669D9B2FA82F252B101FA02F3C2F1EE
:10102000200120FA01F10CFA02FC41EA030E94407F
:101030004FEA1C48210CBEFBF8F61FFA8CF708FBA0
:1010400016E341EA034306FB07F199420AD91CEB78
:10105000030306F1FF3080F01F81994240F21C81AA
:10106000023E63445B1AA4B2B3FBF8F008FB1033F2
:1010700044EA034400FB07F7A7420AD91CEB040427
:1010800000F1FF3380F00A81A74240F207816444F7
:10109000023840EA0640E41B00261DB1D44000237C
:1010A000C5E900433146BDE8F0878B4209D9002DE0
:1010B00000F0EF800026C5E9000130463146BDE86A
:1010C000F087B3FA83F6002E4AD18B4202D38242D4
:1010D00000F2F980841A61EB030301209E46002D83
:1010E000E0D0C5E9004EDDE702B9FFDEB2FA82F2D8
:1010F000002A40F09280A1EB0C014FEA1C471FFA36
:101100008CFE0126200CB1FBF7F307FB131140EA1C
:1011100001410EFB03F0884208D91CEB010103F1E9
:10112000FF3802D2884200F2CB804346091AA4B2AB
:10113000B1FBF7F007FB101144EA01440EFB00FE7F
:10114000A64508D91CEB040400F1FF3102D2A645E4
:1011500000F2BB800846A4EB0E0440EA03409CE783
:10116000C6F12007B34022FA07FC4CEA030C20FA30
:1011700007F401FA06F31C43F9404FEA1C4900FA50
:1011800006F3B1FBF9F8200C1FFA8CFE09FB1811CD
:1011900040EA014108FB0EF0884202FA06F20BD940
:1011A0001CEB010108F1FF3A80F08880884240F290
:1011B0008580A8F102086144091AA4B2B1FBF9F0D4
:1011C00009FB101144EA014100FB0EFE8E4508D9CF
:1011D0001CEB010100F1FF346CD28E456AD9023854
:1011E000614440EA0840A0FB0294A1EB0E01A14239
:1011F000C846A64656D353D05DB1B3EB080261EBA7
:101200000E0101FA07F722FA06F3F1401F43C5E980
:10121000007100263146BDE8F087C2F12003D840B6
:101220000CFA02FC21FA03F3914001434FEA1C47F8
:101230001FFA8CFEB3FBF7F007FB10360B0C43EAEA
:10124000064300FB0EF69E4204FA02F408D91CEB9A
:10125000030300F1FF382FD29E422DD90238634498
:101260009B1B89B2B3FBF7F607FB163341EA034138
:1012700006FB0EF38B4208D91CEB010106F1FF3887
:1012800016D28B4214D9023E6144C91A46EA00467E
:1012900038E72E46284605E70646E3E61846F8E610
:1012A0004B45A9D2B9EB020864EB0C0E0138A3E759
:1012B0004646EAE7204694E74046D1E7D0467BE73A
:1012C000023B614432E7304609E76444023842E7B2
:1012D000704700BF002301461A46184601F0A8BF18
:1012E00010B4044C03460A4620685DF8044B1946C6
:1012F00000F002B80000002010B502FB01F100F080
:101300006BF8044668B150F8042C22F00302043A4A
:10131000242A18D8132A06D802460023C2E900332B
:101320009360204610BD00231B2AC0E900330FD96B
:10133000242AC0E9023311BF00F11002036100F159
:1013400018024361E9E7002100F0F0FA204610BDE1
:1013500000F10802E1E700BF014B1868704700BFC9
:101360000000002038B5084B084D5B1B9C1007D0CF
:10137000043B1D44013C55F804399847002CF9D131
:10138000BDE838400CF006B9C0E50008BCE500082F
:1013900070B50D4E0D4D761BB61006D0002455F8D5
:1013A000043B01349847A642F9D1094E094D761BFA
:1013B0000CF0EAF8B61006D0002455F8043B0134CE
:1013C0009847A642F9D170BDB4E50008B4E500081D
:1013D000BCE50008B4E500082DE9F04F01F10B066B
:1013E000162E83B0044624D8102900F2BA8000F0EB
:1013F000EFFA102618220220B74F3A44A2F1080152
:1014000053688B4200F0BA805A68D96822F0030210
:101410001A449D68E9608D60516841F001012046E1
:10142000516003F1080500F0D5FA284603B0BDE885
:10143000F08F36F0070600F19480B14200F29180FF
:1014400000F0C6FAB6F5FC7FC0F09681730A00F092
:101450008F80042B00F26B81B30903F1390003F193
:10146000380CC3009C4F3B44A3F108055B689D42C8
:1014700006D10CE0002980F22B81DB689D4206D06A
:101480005A6822F00302911B0F29F3DD60463D6983
:10149000DFF848C265457CD06A6822F00302931BDE
:1014A0000F2B00F37781002BC7E904CC80F2688111
:1014B000B2F5007F80F01681D308796801334FEAD6
:1014C000521E012202FA0EF20A4357F833E0C5F821
:1014D00008E007EBC3010839E9607A6047F8335048
:1014E000CEF80C50831001219940914257D81142F7
:1014F00006D120F003004900114200F10400FAD0A7
:1015000007EBC0094D468646D5F80C80454508D105
:1015100019E1002B80F22081D8F80C80454500F0BD
:101520001281D8F8042022F00302931B0F2BF0DD68
:101530002046D8E9025408EB060146F00106C8F837
:101540000460EC60A56043F00104C7E90411C1E93F
:1015500002CC4C6048F8023000F03CFA08F1080573
:1015600002E00C2323600025284603B0BDE8F08F7D
:101570004FF4007340204FF03F0C73E7D3689A425A
:1015800008BF02307FF440AF3D69DFF850C16545C8
:1015900082D17A688310012199409142A7D9BD6810
:1015A0006B6823F00308464503D8A8EB06030F2B0E
:1015B0007EDCDFF82C91D7F80824D9F8003001320E
:1015C000334405EB080A00F02F8103F580530F33F5
:1015D00023F47F6B2BF00F0B5946204600F020FAC6
:1015E000411C024600F0EF80824500F2EA80D9F803
:1015F00004105944C9F804100B4600F04B81D7F889
:10160000081401311BBFA2EB0A0A5344C7F808248F
:10161000C9F8043012F0070300F01281C3F1080189
:101620000A44C3F5805193440831A1EB0B01C1F387
:101630000B0A514620460192009300F0F1F9421C3A
:10164000DDE9003200F04B81831A03EB0A0BD9F875
:101650000400BA604BF001030AEB0001BD42536085
:10166000C9F8041000F02281B8F10F0F40F2208178
:101670006B68A8F10C0020F0070003F0010303439E
:101680006B604FF0050C2B180F28C3E901CC00F25A
:101690002D8153681546D9F82C208A42D9F830207C
:1016A00038BFC9F82C108A4238BFC9F830108CE016
:1016B000AA1943F0010346F001066E602046BA60A5
:1016C000536000F087F90835284603B0BDE8F08F75
:1016D000D9681A449DE600BF300400203804002079
:1016E000DC090020B2F5206F4FEA522363D3142B9C
:1016F00000F2B88003F15C01C9005B3307EB010E17
:101700007958AEF1080E8E4500F091804B6823F0B9
:101710000303934202D989688E45F7D1D1F80CE0D2
:101720007A68C5E9021ECEF80850CD60DAE6142BBF
:1017300059D9542B00F29E80330B03F16F0003F153
:101740006E0CC3008EE60EF1010E1EF0030F05F1C4
:1017500008057FF4D9AE51E0424445465368D8F8B5
:101760000C1043F00103536055F8083F2046D96040
:101770008B6000F02FF9F7E6F00806F108023BE66F
:101780002A442046536843F001035360083500F0B3
:1017900021F9E9E6A919204646F0010643F00104C3
:1017A0006E60C7E90411C1E902CC4C60AB5000F097
:1017B00011F90835D8E6930903F13901C900383326
:1017C0009CE7BD4260D0BD686B6823F0030B5E45AB
:1017D000ABEB060302D80F2B3FF76AAF204600F0B1
:1017E000F9F80025C0E603F15C0003F15B0CC300CF
:1017F00038E659F808394B4540F0968010F0030F51
:1018000000F1FF30F5D17B6823EA01037B604900DA
:1018100099423FF6C4AE19B9C1E649000EF1040E73
:101820001942FAD070466BE603F1100BD4E69A1019
:101830004FF001087B6808FA02F21A437A6070E7F9
:1018400002EB0B014942C1F30B0A514620460193BA
:10185000009200F0E5F8431CDDE900237FF4F4AECC
:101860009A46F4E6542B26D8130B03F16F01C900F6
:101870006E3343E7B3F5AA7F26D8F30B03F1780064
:1018800003F1770CC300EDE5D9F804305B44C9F8E7
:101890000430B4E6CAF30B0000287FF4B0AEBD6894
:1018A00008EB0B0343F001036B60F4E61546F2E628
:1018B0000123536092E7B3F5AA7F21D8D30B03F13C
:1018C0007801C900773319E740F25452934221D886
:1018D000B30C03F17D0003F17C0CC300C2E5083BAF
:1018E0009B44ABEB020B4FF0000AB0E605F1080198
:1018F000204602F031FFBD68D9F804106B68CAE6D3
:1019000040F254518B420BD8930C03F17D01C90076
:101910007C33F3E64FF47E737F204FF07E0CA1E51D
:101920004FF47E717E23E9E67B6870E7830730B56C
:1019300048D0541E002A3FD0CAB2034601E0013C01
:101940003AD303F8012B9D07F9D1032C2DD9CDB241
:1019500045EA05250F2C45EA054536D9A4F11002C4
:1019600022F00F0C03F1200EE6444FEA121C03F1A3
:10197000100242E9045542E9025510327245F8D18D
:101980000CF1010214F00C0F03EB021204F00F0C27
:1019900013D0ACF1040323F003030433134442F8DF
:1019A000045B9342FBD10CF003042CB1CAB21C447B
:1019B00003F8012B9C42FBD130BD64461346002C3A
:1019C000F4D1F9E703461446BFE71A46A446E0E718
:1019D000704700BF704700BF0EB400B582B003ABC4
:1019E000816853F8042B019300F0BAF802B05DF857
:1019F00004EB03B0704700BF0FB400B5074983B0D4
:101A000004AB086853F8042B8168019300F0A8F830
:101A100003B05DF804EB04B0704700BF0000002085
:101A200038B5074D0022044608462A600AF06AF9D4
:101A3000431C00D038BD2B68002BFBD0236038BD81
:101A4000100A00200000000000000000000000005C
:101A50000000000000000000000000000000000086
:101A60000000000000000000000000000000000076
:101A70000000000000000000000000000000000066
:101A800090F800F06DE9024520F007016FF0000CBE
:101A900010F0070491F820F040F049804FF0000466
:101AA0006FF00700D1E9002391F840F000F1080041
:101AB00082FA4CF2A4FA8CF283FA4CF3A2FA8CF379
:101AC0004BBBD1E9022382FA4CF200F10800A4FAE0
:101AD0008CF283FA4CF3A2FA8CF3E3B9D1E9042334
:101AE00082FA4CF200F10800A4FA8CF283FA4CF36B
:101AF000A2FA8CF37BB9D1E9062301F1200182FA25
:101B00004CF200F10800A4FA8CF283FA4CF3A2FA2A
:101B10008CF3002BC6D0002A04BF04301A4612BA38
:101B2000B2FA82F2FDE8024500EBD2007047D1E93B
:101B3000002304F00305C4F100004FEAC50514F0CA
:101B4000040F91F840F00CFA05F562EA05021CBF9B
:101B500063EA050362464FF00004A9E700000000B5
:101B60002DE9F04F2DED068BBFB01C4688469146FF
:101B700009EE100A054602F03BFF0368149318466D
:101B80000D94FFF77DFF12901DB1AB6B002B00F0A1
:101B90004282B8F90C20950493B20AD442F400535F
:101BA000D8F86420A8F80C3022F400529BB2C8F890
:101BB0006420180740F1AB80D8F81020002A00F00C
:101BC000A68003F01A030A2B00F0B0809FED947BEF
:101BD0000023CDE922338DED107B2EAA0F932192A5
:101BE0009246139315930B9399F80030002B00F055
:101BF000A4814C4604E014F8013F002B00F0E5807E
:101C0000252BF8D1B4EB090540F0E3802378002BB5
:101C100000F0938100234FF0FF32CDE9092365786E
:101C20008DF8673004F1010918469B4609F1010956
:101C3000A5F12002582A00F2F780DFE812F07F02B7
:101C4000F500F5007A02F500F500F500F500F50065
:101C5000F5002D027502F50038023D02F500700214
:101C600059005900590059005900590059005900AC
:101C70005900F500F500F500F500F500F500F50058
:101C8000F500F500F50057028901F5008901F5001E
:101C9000F500F500F500B602F500F5009800F50036
:101CA000F500F500F500F5008800F500F500950257
:101CB000F500F500F500F500F500F500F500F5007C
:101CC000F500F5008702F001890189018901BB0255
:101CD000F001F500F500EC02F500D6029A00C5020D
:101CE000C002F5001B03F5008A00F500F500F902BB
:101CF000A5F13002002119F8015B01EB810102EB33
:101D00004101A5F13002092AF5D90A9190E719EEAF
:101D1000100A414601F022FA002841F02681B8F865
:101D20000C3003F01A030A2B7FF450AFB8F90E30D1
:101D3000002BFFF64BAF19EE100A23464A464146E8
:101D40003FB0BDEC068BBDE8F04F01F0A1B94BF000
:101D5000100B1BF0200100F050810D9B073323F086
:101D60000703596853F8080B0D9301230EE04BF05D
:101D7000100B1BF0200100F033810D9B073323F083
:101D80000703596853F8080B0D93002300248DF8BE
:101D90006740099A561C00F091822BF08006079646
:101DA00050EA010640F08882002A40F00D83002BA3
:101DB00040F01E851BF001030C9300F09485302346
:101DC0008DF8B7300DF1B7069DE2B4EB090500F0D0
:101DD000B480239B2B442393229B0133072BCAE916
:101DE0000095229305DC0AF1080A0B9B2B440B9308
:101DF0000CE719EE100A21AA414604F0AFFF18B90A
:101E00000DF1B80AF1E7B046B8F80C305B0601F105
:101E1000AC800B983FB0BDEC068BBDE8F08F00BFE7
:101E20000000000000000000002B40F0E587002DBE
:101E300000F0838000238DF8673001238DF89050E7
:101E400008930C9324AE0023CDF81CB009930E9395
:101E5000079B13F0020302D0089A02320892079AF5
:101E600012F0840B05D10A9A0899571A002F00F333
:101E7000A283239C9DF867208AB1229A0DF1670105
:101E800001320134CAF80010072A4FF001012394EF
:101E90002292CAF8041000F3DD830AF1080A83B124
:101EA000229B1AAA01330234CAF80020072B4FF0F4
:101EB000020223942293CAF8042000F3DA830AF181
:101EC000080ABBF1800F00F09B82099B0C9AA3EBE0
:101ED000020BBBF1000F00F3D682079BDF0500F178
:101EE0001B820C9BCAF804301C44229BCAF8006079
:101EF0000133072B2394229300F350830AF1080A3D
:101F0000079B5A0705D50A9B089A9D1A002D00F3D6
:101F1000BD83DDE90A2308998A42ACBF9B185B1890
:101F20000B93002C40F0EA820023229399F80030B2
:101F30000DF1B80A002B7FF45CAE239B002B3FF41D
:101F400063AF19EE100A21AA414604F007FF5BE7D0
:101F5000002B40F0F6870D9B073323F00703B3EC0B
:101F6000027B8DED107BDDE910670D9327F00043B8
:101F700008EE903A08EE106AB94B51EC180B4FF08E
:101F8000FF3207F021FD002840F0B484B44B51EC3F
:101F9000180B4FF0FF3207F0F9FC002840F0AA843C
:101FA000002200233046394607F0E6FC002840F0C6
:101FB00002879DF86740AB4E2BF080030793AA4B36
:101FC0000022472DC8BF1E460323CDE908320C93DB
:101FD0000E92002C3FF43CAF089B0133089337E787
:101FE0001BF0100352D11BF040014FD00D9A52F854
:101FF000040B0D92194680B2C8E61BF010033FD1C6
:102000001BF040013CD00D9A52F8040B0D9219467A
:1020100080B20123BAE6284602F02EFBB9E5002B78
:1020200040F09F871BF0200F0D9B68D0073323F0F3
:1020300007031A465B6852F8080B0D921946002BED
:10204000C0F23D84099B013300F005852BF080032D
:10205000079350EA01039DF8674000F0C583DDF85F
:102060001CB00A2871F1000380F0FC843030012399
:102070008DF8B700CDF81CB00C930DF1B70642E116
:102080000D9B53F8040B0D9301237FE60D9B53F832
:10209000040B0D930B4679E60D9A52F8041B0A9136
:1020A000002980F21B840A990D9249420A9199F8FD
:1020B00000504BF0040BB9E5494611F8015B2A2D9D
:1020C00000F0C587A5F13002092A894698BF002192
:1020D00000F2338719F8015B01EB810102EB41014A
:1020E000A5F13002092AF5D90991A1E5002B40F0AC
:1020F00030874BF0100B1BF0200F0D9B96D153F83F
:10210000040B0D931BF0100F40F0D4831BF0400F15
:1021100000F0D08340F3C0310B4600B28FE799F84E
:1021200000504BF0800B81E599F8005001232B20E3
:102130007CE599F800504BF0010B77E599F80050D9
:1021400000287FF473AD012320206FE50D9B002252
:102150008DF8672053F8042B0D9301238DF8902000
:1021600008930C9324AE6EE6002B40F0E2863F4BC2
:1021700013931BF0200163D00D9B073323F007035B
:10218000596853F8080B0D931BF0010F0BD050EA60
:10219000010308D030238DF868308DF869504BF07A
:1021A000020B0223F2E50223F0E599F800504BF010
:1021B000080B3BE599F800504BF0400B36E599F8D9
:1021C00000504BF0200B31E50D9B53F8040B0D93A1
:1021D000302378258DF86830254B13934BF0020B94
:1021E0008DF8695000210223D0E5002B40F0AD8628
:1021F0001BF0200F40F025841BF0100F40F09D8451
:102200001BF0400F00F099840D9B0B9953F8042BA1
:102210000D931180E8E499F800506C2D03BF99F8F4
:1022200001504BF0200B09F101094BF0100BFDE4BC
:10223000002B40F092860E4B13931BF020019BD194
:102240001BF0100340F031831BF0400100F02D83A0
:102250000D9A52F8040B0D92194680B294E700BF14
:10226000FFFFEF7F90E4000894E40008B4E4000866
:10227000A0E400080D9C099B54F8046B00278DF81E
:102280006770002E00F027845A1C00F023851A4640
:102290003946304602F054FC002800F03286831B99
:1022A0000C9323EAE3730D9409979DF86740CDF8EA
:1022B0001CB008930E978CE6DDF81CB0012B3FF4A0
:1022C000D0AE022B00F088802EAE00F00703C008CD
:1022D00040EA4170C908303350EA0107324606F837
:1022E000013DF2D11BF0010F00F08480302B00F093
:1022F00081803023023A06F8013C2EAB9B1ACDF8C0
:102300001CB00C931646099B0C9A9342B8BF134617
:10231000089300230E935CE6652D40F3F980DDE918
:1023200010010022002307F01DFB002800F0E981C6
:10233000229BC54ACAF80020013301340122072B31
:1023400023942293CAF8042000F36B840AF1080A4C
:102350001B9B0F9A934280F2BC82129B149A1C44DE
:10236000CAE90023229B23940133072B229300F315
:10237000A5830AF1080A0F9B5D1E002D7FF7C0ADF3
:10238000102D229BB14F40F3408419EE10BA102655
:1023900005E00AF1080A103D102D40F336840133A0
:1023A0001034072BCAE90076CDE92234F1DD21AAE9
:1023B0004146584604F0D2FC00287FF425ADDDE903
:1023C00022340DF1B80AE6E7012B00F04885022B14
:1023D000DDF81CB07FF478AF139A2EAE00F00F0337
:1023E0000009D35C06F8013D40EA0170090950EA92
:1023F0000103F3D12EAB9B1BCDF81CB00C9382E7ED
:102400000A9B089AA3EB020BBBF1000F7FF75DADAF
:10241000BBF1100F229A8D4F27DD2146102319EEB4
:10242000104A06E0ABF1100BBBF1100F0AF1080ADD
:102430001ADD01321031072ACAE90073CDE92221E1
:10244000F0DD21AA414620460DF1B80A04F086FCD1
:1024500000287FF4D9ACABF1100BBBF1100FDDE914
:1024600022214FF01003E4DC0C4601325C44072AC1
:10247000CDE92224CAF80070CAF804B000F3DF8363
:102480000AF1080A21E5BBF1100F229A6F4F27DDF0
:102490002146102319EE104A06E0ABF1100BBBF1F8
:1024A000100F0AF1080A1ADD01321031072ACAE9B1
:1024B0000073CDE92221F0DD21AA4146204604F037
:1024C0004DFC00287FF4A0ACABF1100BBBF1100F5A
:1024D000DDE922210DF1B80A4FF01003E4DC0C46CF
:1024E00001325C44072ACDE92224CAF80070CAF8F8
:1024F00004B000F3CC810AF1080AEEE419EE100AE8
:1025000021AA414604F02AFC00283FF40DAD7BE4EB
:102510000F9B012B40F37181229DCAF800600135A9
:1025200001340123072D23942295CAF8043000F3C7
:102530000C830AF1080A129B149A01351C44072DDA
:10254000CAE90023CDE9225400F30D830AF1080AF9
:10255000DDE910010022002307F004FA002840F012
:102560006B810F9B0135013B01361C44072DCAF8D6
:1025700000602295CAF80430239400F34F810AF1D9
:10258000080A159BCAF8043001351C44072D1DAB01
:10259000CDE92254CAF800307FF7B0AC19EE100A2A
:1025A00021AA414604F0DAFB00287FF42DAC239CDD
:1025B0000DF1B80AA4E4102FDDE9222134DD1693D1
:1025C000CDF85C901024B1460B464646B8462F46DF
:1025D00019EE105A06E0A8F11008B8F1100F0AF130
:1025E000080A19DD01321A491033072ACAE9001412
:1025F000CDE92223EFDD21AA314628460DF1B80AA4
:1026000004F0ACFB00287FF4FEABA8F11008B8F191
:10261000100FDDE92223E5DC3D4619464746169BAF
:10262000B0464E46DDF85C90CAF8047001327C1862
:10263000072A0749CAF80010CDE9222400F3D58201
:102640000AF1080A16E400BFD0E40008B4D5000877
:10265000A4D5000819EE100A21AA4146169304F0E9
:102660007DFB00287FF4D0AB239C169B0DF1B80AAC
:1026700015E419EE100A21AA414604F06FFB002868
:102680007FF4C2AB239C0DF1B80A1AE4102D229BF3
:1026900020DD19EE107A102604E0103D102D0AF10D
:1026A000080A17DD0133914A1034072BCAE90026C6
:1026B000CDE92234F1DD21AA414638460DF1B80AB0
:1026C00004F04CFB00287FF49FAB103D102DDDE99A
:1026D0002234E7DC0133854ACAF804502C44072B26
:1026E000CDE92234CAF800207FF713AC19EE100AA6
:1026F00021AA414604F032FB00287FF485AB239CDD
:1027000007E41B99002940F33C82DDE90E379F4224
:10271000A8BF1F46002F0BDD229B01333C44072B33
:10272000CAE900672394229300F3CB830AF1080AD5
:102730000E9D002FA8BFED1B002D00F3D5811B9D22
:102740000F9B9D4280F2AE81129B149A1C44CAE9F1
:102750000023229B23940133072B229300F3A383AE
:102760000AF1080A0F9B0E9A5D1B9F1AAF42A8BF81
:102770002F46002F0EDD229BCAF804700133164449
:102780003C44072BCAF800602394229300F3A683ED
:102790000AF1080A002FA8BFED1B002D7FF7B0AB90
:1027A000102D229B524F40F3308219EE10BA1026A2
:1027B00005E00AF1080A103D102D40F3268201338E
:1027C0001034072BCAE90076CDE92234F1DD21AAC5
:1027D0004146584604F0C2FA00287FF415ABDDE903
:1027E00022340DF1B80AE6E7099B002B40F037834D
:1027F000002309930C932EAE85E5079BD9073FF57F
:102800008BAE229DCAF80060013501340123072DEB
:1028100023942295CAF804307FF7B1AE19EE100A5E
:1028200021AA414604F09AFA00287FF4EDAADDE9D6
:1028300022540DF1B80AA4E60F9B5E1E002E7FF70E
:10284000A0AE102E2A4F40F35782CDF824904FF0BF
:10285000100B19EE109A05E00AF1080A103E102E2E
:1028600040F3488201351034072DCAE9007BCDE9D9
:102870002254F1DD21AA4146484604F06FFA0028AF
:102880007FF4C2AADDE922540DF1B80AE6E719EE99
:10289000100A21AA414604F061FA00287FF4B4AA84
:1028A000239C0DF1B80AFFF718BB0D9B53F8040BDE
:1028B0000D9369E4C1170B46002BBFF6C3AB404232
:1028C0004FF02D0461EB41018DF867400123FFF7C4
:1028D00060BA079BDD077FF513AB3EE599F8005022
:1028E0000D92FFF7A3B92EAE0DE500BFA4D50008E9
:1028F000B4D50008DDE9100102460B4607F064F884
:10290000002840F06583099B013325F0200700F083
:10291000F582472F00F08182DDE910014BF48072CF
:1029200000290792C0F24C829DED107B0023169384
:10293000B0EE47AAF0EE67AA662D00F0E981462DB9
:1029400000F0E681452F0ABF099B099C5C1C1FAB68
:1029500004931CAB03931BAB02930223009319EE69
:10296000100A53EC1A2B019400F02AFD672D06463D
:1029700040F03D821BF0010F40F03C821F9B472F2F
:10298000A3EB06030F9340F06E831B9B0E93D91CA1
:1029900003DB099A934240F37882023D0E9A8DF848
:1029A0007450531E002B1B93B6BFC2F101032B22A0
:1029B0002D22092B8DF8752040F3F5820DF183044B
:1029C000C04F2246104687FB0321DA17C2EBA10253
:1029D00002EB8201A3EB4101303100F8011C1946E2
:1029E0006329134600F1FF32ECDC3033D9B2831E89
:1029F0009C4202F8011C40F2278313460DF1760237
:102A000001E013F8011B02F8011B9C42F9D10DF102
:102A100085030DF176021B1A13441DAA9B1A159308
:102A20000F9A159B012A13440C9340F3C8820C9B08
:102A3000129A13440C9323EAE373089300230E9332
:102A40009EE10D9B0B9853F8041B0D93C217C1E92F
:102A50000002FFF7C9B80A2871F100039DF867402A
:102A6000FFF404ABCDF81C902EAEA1460A22002341
:102A700004460F46FEF7ACFA303206F8012D00236B
:102A8000204639460A22FEF7A3FA0A2C77F1000302
:102A9000ECD22EAB9B1B4C460C93DDF81C90CDF872
:102AA0001CB030E4079BD8073FF54EAEDDE90E239E
:102AB0009F1A5D1BAF42A8BF2F466BE619EE100AA6
:102AC00021AA414604F04AF900287FF49DA9239CDD
:102AD0000DF1B80A4FE4062B28BF0623CDE90C34CC
:102AE000794E0893FFF7AFB9102D229B774F40F333
:102AF00055813A460996474619EE106A4FF0100B79
:102B0000904605E00AF1080A103D102D40F342817D
:102B100001331034072BCAE9008BCDE92234F1DDF3
:102B200021AA3946304604F019F9002840F04482C1
:102B3000DDE922340DF1B80AE6E70D9B0B9953F855
:102B4000042B11600D93FFF74FB819EE100A21AA5C
:102B5000414604F003F900287FF456A9DDE9225428
:102B60000DF1B80AE7E419EE100A21AA414604F073
:102B7000F5F800287FF448A9DDE922540DF1B80AE0
:102B8000E6E4229B524ACAF80020013301340122B4
:102B9000072B23942293CAF8042000F31A810AF128
:102BA000080A002959D1079B0F9A03F00103134328
:102BB0003FF4A6A9129B14991A19CAE90013229B83
:102BC00023920133072B229300F32D810AF1080A87
:102BD0000F99CAF8006001338C18072BCDE9223415
:102BE000CAF804107FF78AA9D8E419EE100A21AABE
:102BF0004146169304F0B2F800287FF405A9239CFF
:102C0000169B0DF1B80AFFF735B901332C44072B99
:102C1000CAF80070CAF80450CDE922347FF76EA9D3
:102C2000BCE419EE100A21AA414604F097F80028E6
:102C30007FF4EAA8239C0DF1B80AFFF789BB19EECF
:102C4000100A21AA414604F089F800287FF4DCA884
:102C5000239C0DF1B80AFFF738B9129B14981A1982
:102C6000CAE90003229B23920133072B229300F32E
:102C7000DA800AF1080A0029AADA4D421031134F0E
:102C800080F2788119EE10BA102405E00AF1080AE2
:102C9000103D102D40F36E8101331032072BCAE92D
:102CA0000074CDE92232F1DD21AA4146584604F0F4
:102CB00055F800287FF4A8A8DDE922320DF1B80A02
:102CC000E6E700BF67666666C8E40008B4D500089A
:102CD000D0E4000830460D940997CDF81CB0FEF7FB
:102CE000CFFE20EAE0739DF867400C9008930E97A2
:102CF000FFF76FB9DDF82490CAF80070013534444D
:102D0000072DCDE92254CAF804607FF738AC85E579
:102D10001FAB04931CAB03931BAB099C02930323CF
:102D20000194009319EE100A53EC1A2B00F048FBA3
:102D3000064604193378302B62D01B9B1C4451EC9F
:102D40001A0B0022002306F00DFE002800F08B80F5
:102D500023469B1B472F0F933FF417AE662D40F081
:102D600082811B9B099A0E93002B0BF0010B40F301
:102D70005C815BEA020140F045810E9B08930C9355
:102D8000169B002B7BD02D238DF8673000230993F1
:102D9000FFF722B94246099EB846174601332C4434
:102DA000072BCDE92234CAF80070CAF8045049DC78
:102DB0000AF1080AC3E42D248DF86740FFF7FBB839
:102DC00001F100430AEE903A2D230AEE100A169301
:102DD000B2E519EE100A21AA414603F0BFFF002810
:102DE0007FF412A81B99239C0DF1B80AD9E6472D50
:102DF0003FF4C0AD3444A2E78DF86700FFF717B881
:102E000051EC1A0B0022002306F0ACFD002894D1EF
:102E1000099BC3F101031B9390E7099B002B08BF9B
:102E20000123099378E519EE100A21AA414603F01F
:102E300095FF00287EF4E8AFDDE922321B990DF101
:102E4000B80A18E719EE100A21AA414603F086FFD6
:102E500000287EF4D9AF239C0DF1B80A6FE4DDF8A9
:102E60001CB0FFF703B91F9BA342BFF472AF302120
:102E70005A1C1F9219701F9B9C42F9D869E7169B38
:102E80009DF867400993FFF7A4B8DDE90E3293423D
:102E900043DB1BF0010F40F0AC8023EAE3720892A1
:102EA0000C9367256CE719EE100A21AA414603F03E
:102EB00055FF00287EF4A8AF1B9D239C0DF1B80A96
:102EC00050E419EE100A21AA414603F047FF0028FA
:102ED0007EF49AAF239C0DF1B80A29E419EE100A8A
:102EE00021AA414603F03AFF00287EF48DAF1B9DD6
:102EF0000F9B239C5D1B0DF1B80A4BE4062309933D
:102F00000AE5099B0D94CDF81CB09DF86740089325
:102F10000C9309900E90FFF75CB8129A0F9B134424
:102F20000E9A0C93002A75DD23EAE3730893672554
:102F300026E78DF86700FFF71AB900220992FEF71D
:102F400077BE8DF86700FFF706B88DF86700FFF7CA
:102F50004FB98DF86700FFF7CCB88DF86700FFF721
:102F60006AB98DF86700FFF75DB84FF0FF330B9338
:102F7000FEF74FBF01332A44072BCDE92232CAF8AE
:102F80000070CAF804507FF721AE19EE100A21AA8A
:102F9000414603F0E3FE00287EF436AFDDE922323D
:102FA0000DF1B80A14E630338DF8773030238DF800
:102FB00076300423159333E5B846FEF725BF1BF0A2
:102FC00001020E927FF433AD23EAE3730893D7E650
:102FD000119B264E002BB8BF2D242BF080030793A6
:102FE000A8BF9DF86740224BB8BF8DF86740FEF739
:102FF000E7BF0E9B129A13440C9323EAE3730893E2
:103000006725BDE612990B441A4422EAE2730C923A
:103010000893B5E60E9B0C9AC3F101031A4422EA09
:10302000E2730C9208936725AAE65BEA020303D1D8
:10303000012308930C93A3E6129B01331A4422EA5E
:10304000E2730C9208939BE602231593E8E40D9A31
:1030500099F80150894652F8041B0D9241EAE1713A
:103060000991FEF7E3BD1B9B0E9397E498E40008DB
:103070009CE4000810B4054C8446134620685DF8B3
:10308000044B0A466146FEF76BBD00BF00000020FE
:1030900070B50C468989ADF58D6D21F00201ADF852
:1030A0000C10616E1991E189ADF80E10E16907917C
:1030B000616A09911AA9009104914FF4806102910B
:1030C00005910021069169460646FEF749FD051E59
:1030D00007DB6946304601F0A5F9002818BF4FF01C
:1030E000FF35BDF80C305B0603D5A38943F04003E0
:1030F000A38128460DF58D6D70BD00BF70B50B4ED8
:103100009AB004466FF00045CDE90445134600949B
:103110000A463068064C02956946039402F084FB27
:10312000009B00221A701AB070BD00BF0000002082
:103130000802FFFF10B59AB06FF00044CDE9041407
:10314000009102946946044C039402F06DFB009BCD
:1031500000221A701AB010BD0802FFFF38B5334BB9
:103160001B6805460C460BB19A6B12B3B4F90C30D0
:1031700018079AB225D5216900292DD012F0010037
:1031800007D00020A06060694042A06139B10020F2
:1031900038BD950758BF6069A0600029F7D11206B5
:1031A00058BF0846F4D543F04003A3814FF0FF30E9
:1031B00038BD184601F060FAB4F90C3018079AB21D
:1031C000D9D4D1062AD5520714D4216943F0080373
:1031D000A3819AB20029D1D102F42070B0F5007F0A
:1031E000CCD02146284601F00BFCB4F90C30216903
:1031F0009AB2C3E7216B51B104F14002914204D06D
:10320000284601F0A9FAB4F90C30002222632169A2
:103210000022C4E9001223F02403D7E7092243F077
:1032200040032A604FF0FF30A38138BD000000202A
:1032300070B4184C2568D5F848411CB365681F2D3B
:1032400025DC38B9AB1C0135656044F8231000203B
:1032500070BC704704EB850C0228CCF88820D4F8A9
:1032600088614FF0010202FA05F246EA0206C4F84C
:103270008861CCF80831E5D1D4F88C311343C4F817
:103280008C31DFE705F5A674C5F84841D6E74FF065
:10329000FF30DDE7A0D500082DE9F04F03690C6988
:1032A000A34283B0C0F28780013C01F11405A30062
:1032B00000F11408009355F8243058F82420013305
:1032C00081469A4208EB840005EB84070190B2FB2B
:1032D000F3F63BD30023AE4640469B465EF804AB74
:1032E00002681FFA8AFC06FB0C334FEA134C4FEAC4
:1032F0001A4A06FB0ACA1FFA83FCABEB0C0C1FFA36
:103300008AF31CFA82FCC3EB124202EB2C421FFA36
:103310008CFC4CEA0243774540F8043B4FEA224BD1
:103320004FEA1A43DAD2009B58F8033073B9019B75
:10333000043B984504D307E0984504F1FF3403D2D9
:1033400053F80429002AF7D0C9F81040484601F084
:10335000C3FF00282BDB01364046002355F8041B31
:10336000D0F800C08AB29A1A0B0C12FA8CF2C3EB96
:103370001C4303EB224392B242EA0342AF4240F8BD
:10338000042B4FEA2343E9D258F8242008EB8403A6
:103390006AB9043B984504D307E0984504F1FF342B
:1033A00003D253F80429002AF7D0C9F81040304658
:1033B00003B0BDE8F08F002003B0BDE8F08F00BF80
:1033C0002DE9F04F2DED068B016C95B09046994696
:1033D000CDE90489279D044641B1426C4A6001232E
:1033E00093408B6001F0BCFC00232364B9F1000A18
:1033F000B4BF012300232B607B4BBCBF2AF0004AE3
:10340000CDF814A033EA0A0300F0B2809DED047BEE
:10341000002251EC170BB0EE479AF0EE679A0023AA
:1034200006F0A0FA074680B1269A01231360289B74
:10343000002B00F0DA826D481860431E0393039856
:1034400015B0BDEC068BBDE8F08F12AB019313AB4A
:103450000093204653EC192BB0EE498AF0EE698AAE
:1034600002F08CF85FEA1A56054640F09980DDE9D3
:1034700012763E4406F23240202840F3AA83C0F17F
:1034800040000AFA00FA06F2124028FA00F04AEA6E
:103490000000FDF7CFF80123013E0D93A1F1F87173
:1034A000534B0022FCF788FF49A3D3E90023FDF723
:1034B0003BF949A3D3E90023FCF780FF804630465F
:1034C0008946FDF7C7F846A3D3E90023FDF72CF999
:1034D00002460B4640464946FCF770FF8046894647
:1034E000FDF734FB0022834600234046494606F0A0
:1034F00043FA002840F06C82BBF1160F00F25B82A9
:103500003C4B03EBCB03D3E9002351EC190B06F042
:1035100033FA002874D00023BE1B0C93731E0BF1EA
:10352000FF3B069300F14E8200230993BBF1000F8D
:103530006DDA099BCDF81CB0A3EB0B030993CBF11B
:1035400000030B93249B092B4FF0000B68D8052B2D
:1035500040F33D83043B24930026249B023B032B32
:1035600000F29886DFE813F04D044A044104240475
:10357000269A42F20F73CAF3130A13605AEA080339
:103580001DD1289B002B00F07C861B4B0393083336
:10359000289A0398136015B0BDEC068BBDE8F08F38
:1035A00018EE903AC3F3130351EC190B43F07F511B
:1035B0000D97A6F2FF36129F41F4401170E7289B49
:1035C000002B40F0D9830D4B039338E7AFF3008015
:1035D00061436F63A787D23FB3C8608B288AC63F19
:1035E000FB799F501344D33F0000F07FD1E40008E3
:1035F0000000F83FD8D50008D8E40008D4E400085B
:10360000BE1B731E069300F19A840C900990069BD2
:103610005B44CDE9063B00230B93249B092B96D9F1
:103620000023CDE9243301264FF0FF330A96089397
:10363000089B0F9300216164204601F06BFB03900F
:10364000002800F02F86039B2364089B0E2B00F2BA
:10365000F980002E00F0F6800799002940F371846C
:10366000BD4B01F00F0203EBC2034FEA2118C9055D
:10367000D3E9006740F10384B84B51EC190BD3E94F
:103680000823FDF77BF941EC180B08F00F084FF009
:10369000030AB8F1000F13D0DFF8C09218F0010F41
:1036A00009D030463946D9E90023FDF73DF80AF143
:1036B000010A06460F465FEA680809F10809EDD1DC
:1036C00051EC180B32463B46FDF758F941EC1A0B0A
:1036D0000C9B5BB157EC1A6BA14B1AEE100A00223F
:1036E000394606F049F9002840F052855046FCF76B
:1036F000B1FF53EC1A2BFDF717F89A4B0022FCF799
:103700005DFE089B8046A1F15079002B00F0F38309
:10371000079B1093089B0E930A9B002B00F0C0841C
:103720000E9A8D4B9049DDF80CA003EBC20353E9D0
:1037300002230020FDF722F942464B46FCF73CFEEF
:1037400059EC1A8B41EC180B49461AEE100AFDF79A
:10375000FDF90746FCF77EFF02460B461AEE100AFB
:103760004946FCF729FE30370AF8017B53EC182B49
:1037700006460F4606F000F9002840F055854FF048
:1037800000080AEE105ACDF844B055465BEC18AB71
:1037900008EE104A44462AE00E9B01349C424BDA64
:1037A000724B504659460022FCF7BEFF6F4B002279
:1037B00082468B4630463946FCF7B6FF894680463E
:1037C000FDF7C4F90746FCF745FF02460B464046A5
:1037D0004946FCF7F1FD303705F8017B52465B4660
:1037E00006460F4606F0C8F8002840F01885324615
:1037F0003B465B490020FCF7DFFD52465B4606F086
:10380000BBF80028C8D0109B039A0793AA4618EE6D
:10381000104A1AEE105A02E0924500F0EA84D146AE
:103820001AF8013D392BF7D00133DBB28AF80030AA
:10383000079B01330793ABE1DDF844B01AEE105A51
:1038400018EE104A139B002BC0F29480079A0E2AA0
:1038500000F39080404B03EBC203D3E90089259B22
:10386000002B1BDA089B002B18DC40F05D83404BDB
:10387000002240464946FCF757FF02460B4651ECF2
:10388000190B06F083F8DDF820A05646002800F05A
:10389000D082259BDDF80C80DF43D2E242464B46C6
:1038A00051EC190BFDF76AF8FDF750F9064683460F
:1038B000FCF7D0FE42464B46FCF736FF0B4602466D
:1038C00051EC190BFCF778FDDDF80CA033463033D2
:1038D0000AF8013B089B012B00F08E834FF0010B8F
:1038E00008EE105A08EE904A1D465446DA461DE08E
:1038F00042464B4630463946FDF740F8FDF726F97B
:103900008346FCF7A7FE42464B46FCF70DFF0AF143
:10391000010A0B46024639463046FCF74DFD0BF1D5
:103920003003AA4504F8013B00F061830F4B0022ED
:10393000FCF7FAFE0022002306460F4606F012F8B6
:103940000028D5D0A24618EE105A18EE904A079BD0
:1039500001330793D1461BE1D8D50008C8D600082B
:103960000000F03F00001C400000E03F0000244049
:10397000000014400A9A002A3FD0249A012A40F3FA
:103980009C82089B03F1FF380B9B4345C0F26E827B
:10399000A3EB0808089B002BC0F26683069A1A4422
:1039A0000692099A17461A4409920121204601F00D
:1039B000DFFA064625E00123BE1B0C93731E069317
:1039C0007FF5B2ADC6F10103099300230693ADE57F
:1039D0005846FCF73FFE42464B4605F0C3FF002821
:1039E0007FF48AAD0BF1FF3B86E5874B0393039889
:1039F00015B0BDEC068BBDE8F08FDDE90976DDF88A
:103A00002C80002F0CDD069A002A09DD0999BA42A4
:103A10001346A8BF3B46C91AFF1AD31A0991069349
:103A20000B9BDBB10A9B002B00F08282B8F1000FE8
:103A30000FDD31464246204601F076FB2A4601461C
:103A40000646204601F0C2FA29460546204601F006
:103A500087F90B9BB3EB080240F00083012120465D
:103A600001F086FABBF1000F824600F3B780249B79
:103A7000012B40F385814FF000090120BBF1000FBD
:103A800040F0B880069A104410F01F0000F09680B5
:103A9000C0F12003042B40F3F883099BC0F11C0004
:103AA00003440244099307440692099B002B05DD59
:103AB00029461A46204601F097FB0546069B002B37
:103AC00005DD51461A46204601F08EFB82460C9BCE
:103AD000002B40F03681089B002B40F31D810A9B90
:103AE000002B40F0A080079B01330793DDF80C808A
:103AF000DDF82090012707E0294600230A2220460E
:103B000001F038F90137054651462846FFF7C4FB56
:103B10004F4500F1300008F8010BEDDB089A002A50
:103B2000C8BF9346039AD8BF4FF0010B0346934496
:103B30000027294601222046049301F055FB5146F7
:103B4000054601F0C9FB002840F3A5811BF8013CA4
:103B5000039A0BF1FF3B04E05A4500F0A7811BF8E4
:103B6000013D392B0BF10109F6D001338BF8003000
:103B70005146204601F0F4F856B12FB1B74203D0B8
:103B80003946204601F0ECF83146204601F0E8F8CD
:103B90002946204601F0E4F8002389F80030269BEE
:103BA000079A1A60289B002B3FF449AC0398C3F88E
:103BB000009015B0BDEC068BBDE8F08F1C20099B72
:103BC00003440993069B0344074406936DE70126CB
:103BD000C3E4C0F1200008FA00F05AE401465A4656
:103BE000204601F0A1FA249B012B824640F3D581A7
:103BF0004FF00009DAF810300AEB8303186901F07E
:103C000067F9C0F120003DE7D0E400083146002309
:103C10000A22204601F0AEF80F9B002B064640F327
:103C20002383CDE90783002F00F31981B9F1000F39
:103C300040F0FD81B046049B039F089903F0010208
:103C40007B1E1944249B0B92134309910A935146FE
:103C50002846FFF721FB31468346284601F03CFB0E
:103C6000424651468146204601F058FBC268014653
:103C70000BF13003002A42D106902846089301F048
:103C80002BFB06990490204601F06AF8049A089BE1
:103C90001AB90A99002900F0D782B9F1000FC0F2D1
:103CA0008881249949EA01090B9951EA090100F038
:103CB0008081002A00F3E881099A3B7007F101092D
:103CC0009742CB4600F0E681294600230A2220468F
:103CD00001F050F84645054631464FF000034FF0DD
:103CE0000A02204612D001F045F84146064600235C
:103CF0000A22204601F03EF84F468046A7E72046BC
:103D0000049301F02DF8049B0122C6E701F032F87C
:103D10004F46064680469AE7249B022B78DC0A9B96
:103D2000002B80D1079B5146013328460793FFF7AC
:103D3000B3FADDF80CB000F130030BF8013B0027BB
:103D4000F7E65146284601F0C7FA0028BFF6C3AE91
:103D5000294600230A22204601F00CF8079B03F1B4
:103D6000FF380A9B0546002B7FF450AF0F9B002BBA
:103D700040F371820893B9E6BD4B0393033307E424
:103D8000DDE9041200297FF476AEC2F31303002BA1
:103D90007FF471AEB74B1340002B00F03E82099BBD
:103DA00001330993069B013306934FF0010964E642
:103DB00001230A93259B079A13440F930133012B88
:103DC0001F460893B8BF01270021172F61647FF7B2
:103DD00033AC012204235B0003F11400B842114606
:103DE00002F10102F7D9616426E401230A93259BBD
:103DF000002B4BDD0F9308931F46E5E700230A9342
:103E0000D8E700230A93F2E70F9BCDF81C800893B4
:103E1000089B002B7FF43DAD51460522204600F063
:103E2000A9FF01468246284601F056FA00287FF78E
:103E300030AD0398079F3123804600F8013B0137DE
:103E400003905146204600F08BFF7B1CDDF80C9060
:103E50000793CDF80C80002E7FF496AE98E631469D
:103E60003A46204601F0C0F90646DFE60B9BCDF846
:103E70002C80A8EB03039B444FF000088AE54FF029
:103E8000020AB0EE498AF0EE698A02E40123259322
:103E90000893FFF7CDBB03D1049BDB073FF556AE7C
:103EA000D9461BF8013D302BFAD061E6079B039AF7
:103EB00001330793312313705AE60D9A002A00F05C
:103EC000638103F23343069ADDF82C801A4406928C
:103ED000099A17461A44099267E55046FCF7BAFB5F
:103EE00053EC1A2BFCF720FC634B0022FCF766FA1C
:103EF0008046A1F15079614B002251EC1A0BFCF77E
:103F00005BFA42464B4606460F4605F053FD002835
:103F100040F07F8130463946424609F1004305F0C2
:103F20002BFD00283FF48EAC4FF0000A5646B0E45B
:103F300029460B9A204601F0F7F805468EE50C90CD
:103F400040E500F04E81079A4D4B564206F00F02B5
:103F500003EBC203D3E9002351EC190BFCF7E4FB9C
:103F6000361141EC1A0B00F08881464F00234FF0C8
:103F7000020AF20706D5D7E90023FCF7D5FB0AF1C0
:103F8000010A0123761007F10807F2D1002B3FF454
:103F90009FAB41EC1A0BFFF79BBB049B002B7FF4FC
:103FA00027AEDDE90412C2F31303002B3FF4F2AE97
:103FB0001EE6002A12DD294601222046049301F064
:103FC00013F95146054601F087F90028049B40F398
:103FD0003581392B00F013810BF13103B94609F813
:103FE000013B079B0133374607934646C0E5A2468F
:103FF00018EE105A18EE904A02460B46FCF7DEF90E
:1040000042464B4606460F4605F0D4FC60B9424690
:104010004B463046394605F0A5FC00283FF497ACE6
:104020005FEACB717FF593AC039AFFF7F8BB716839
:10403000204600F06FFE0746002800F03A81336901
:1040400002339A0006F10C010C3000F0C9FD39462C
:104050000122204601F0C8F88046ECE529462046BA
:1040600001F062F80546F9E4DDE908239F1A9CE4B3
:10407000D4E400080000F07F00001C400000144061
:10408000D8D50008C8D60008392B00F0B880B9464A
:104090000133A4E7079A013237460792464648E5BE
:1040A0000E988D4901EBC00142464B4651E9020191
:1040B000FCF73AFB5AEC1A9B41EC180B51461AEEEE
:1040C000100AFCF743FD0746FCF7C4FA02460B460C
:1040D0001AEE100A5146FCF76FF906460E98DDF805
:1040E0000C803037012808F8017B0F4600F0BA80B9
:1040F0000E9B039ACDF838B013449B46C246774BCB
:10410000002230463946FCF70FFB89468046FCF713
:104110001DFD0746FCF79EFA303702460B46404627
:104120004946FCF749F90AF8017BDA4506460F468D
:10413000E5D1DA46DDF838B0694B59EC188B00222E
:1041400018EE100A4946FCF739F932463B4605F0AD
:1041500013FC00286DD118EE102A4B466049002050
:10416000FCF72AF932463B4605F024FC00283FF4D0
:1041700069ABD1460AF1FF3A19F8013C302BF8D06F
:10418000109B0133079303E5129BC3F136039AE6B4
:10419000089B002B3FF4A1AE0F9B002B7FF752AB87
:1041A000079A0E93013A4D4B10921AEE100A3946B7
:1041B0000022FCF7B9FA024616460F460AF1010042
:1041C000FCF748FA32463B46FCF7AEFA454B002274
:1041D000FCF7F4F847EC1A6B8046A1F15079FFF731
:1041E0009BBA4FF0020AB0EE49AAF0EE69AAFFF7B7
:1041F0006FBA079B013307933123FFF717BB079B68
:10420000BB4601330793392337460BF8013B46463B
:104210009EE44FF0000A56460BE699462DE4AA4666
:1042200018EE104A1AEE105A109B01330793D1462C
:10423000AEE4109B039A0793FFF7F1BA7FF4CEAE7A
:10424000DA077FF5CBAEC4E6392BD8D0B9F1000F31
:104250003FF7C2AEC2E6249B022B3FF7D5ADCDF8A7
:104260001C805FE5C24667E7249B022B3FF7CCAD7D
:104270000F9BCDF81C800893D5E44FF0020AFFF79E
:1042800027BA194B0393FFF7DAB83FF40EACC0F12D
:104290003C0094E4002666643146204600F03AFD76
:1042A000039068B9114B124800224FF4D57103F006
:1042B000D1FB0E4B0E483A4640F2EA2103F0CAFB0E
:1042C000039B236401224FF0FF3325960F930A923C
:1042D0000893FFF7B7BA00BFD8D500080000244004
:1042E0000000E03F00001C40D8E40008E4E40008BF
:1042F000F8E40008B1F90C202DE9F0410C46110753
:10430000804647D4636842F40062002BA2815EDDE0
:10431000A56A002D58D00023D8F80060C8F80030F6
:1043200093B212F4805256D10123E1694046A84766
:10433000431C67D0A389A56A5F0705D56368C01AC7
:10434000236B0BB1E36BC01AE169024600234046C0
:10435000A847411C41D1D8F80030002B3DD01D2B7F
:1043600001D0162B56D1A3892269226023F4006361
:1043700000216160A381216BC8F8006021B304F1C2
:104380004003994202D0404600F0E6F90020206345
:10439000BDE8F0812669BEB193B2256826609A0710
:1043A0000CBF63690023AD1BA3600BE02B463246B4
:1043B000E169676A4046B847B0F1000CA5EB0C050F
:1043C000664417DD002DF1DC0020BDE8F081E36BD1
:1043D000002B9DDCF8E7206DAEE7B4F90C302269C4
:1043E000226023F40063A3810022DB046260C2D553
:1043F0002065C0E7A38943F040034FF0FF30A3815D
:10440000BDE8F081D8F80030002B93D01D2B06D0EA
:10441000162B04D0A38943F04003A381D5E7C8F845
:104420000060D1E738B50D46044608B1836B1BB177
:10443000B5F90C0030B938BD00F01EF9B5F90C0023
:104440000028F8D029462046BDE83840FFF752BF83
:1044500038B5B8B10F4B1D6804460DB1AB6B4BB10D
:10446000B4F90C0000B938BD21462846BDE83840F3
:10447000FFF740BF284600F0FFF8B4F90C00002811
:10448000F1D0F1E7044B05491868BDE8384000F069
:1044900089BA00BF00000020A0D50008254400080C
:1044A00000207047014900F07DBA00BF297B000859
:1044B000002070472DE9F84F2D4A4668C26300245A
:1044C0000323C0E9B843074600F53B720423C0F854
:1044D000E8222146C6E902430822C6E90044C6E9AB
:1044E00004447466B46106F15C00FDF71FFADFF85E
:1044F0008CB0BD68DFF888A0DFF88890DFF888808E
:104500001C4BC6F824A0C6E9076BC6F82890C6F86D
:104510002C800822EB60C5E90044C5E904446C66C0
:10452000AC60AC61214605F15C00FDF7FFF9C5E91F
:10453000075BC5E909A9C5F82C80FD680E4BEB6047
:10454000C5E90044C5E904446C66AC60AC61214631
:10455000082205F15C00FDF7E9F90123C5E9075BD5
:10456000C5E90A98C5F824A0BB63BDE8F88F00BF71
:10457000A544000809000100120002009557000838
:10458000BD570008FD5700081D58000870B5682287
:104590004D1E02FB05F50E4605F17401FCF71CFFEC
:1045A000044640B100210C30C4E90016A06005F1BA
:1045B0006802FDF7BBF9204670BD00BF274B2DE90F
:1045C000F0411E68B36B07465BB306F538764FF0D3
:1045D0000408D6E90134013B04D51EE05A1C04F15D
:1045E00068041AD0B4F90C50013B002DF6D11C4BD5
:1045F0006566C4E90055C4E90253C4E90455A561E0
:104600000822294604F15C00FDF790F9C4E90C5535
:10461000C4E911552046BDE8F08135682DB12E461C
:10462000D7E73046FFF746FFCFE74FF4D67138465D
:10463000FCF7D2FE044668B10560C0F804800C3077
:104640002946A06025464FF4D072FDF76FF934601B
:104650002E46BEE70C2330603B60DBE7A0D50008A8
:104660000100FFFF024B0349186800F09BB900BF2F
:10467000A0D50008297B0008836B03B1704719E7B8
:10468000704700BF704700BF704700BF704700BF52
:10469000024B0349186800F065B900BF0000002014
:1046A000A1440008024B0349186800F05BB900BF41
:1046B00000000020B1440008F8B5244F0C4606461F
:1046C000FDF786F9BA685568C4F57E630F3325F0A7
:1046D00003052B4423F47F6323F00F03A3F58054D9
:1046E000B4F5805F07DB00213046FDF799F9BB6820
:1046F0002B44984204D03046FDF76CF90020F8BDF9
:1047000061423046FDF78CF901300DD0104ABB688C
:104710002D1B45F001055D60136830461B1B1360BF
:10472000FDF758F90120F8BD00213046FDF778F972
:10473000BA68831A0F2BDEDD43F001035360054B8B
:1047400003491B68C01A0860D5E700BF3004002089
:10475000E009002038080020002961D0F8B50C4697
:104760000646FDF735F954F8042C7B4FA4F10805F3
:1047700022F0010105EB010CB868DCF8043060455B
:1047800023F0030300F08B80D207CCF8043032D43E
:1047900054F8082CAD1A1144AA6807F108008242A7
:1047A0006AD00CEB0304D4F804E0EC68D4601EF08B
:1047B000010FA26000F0978041F001036B60CCF81C
:1047C0000010B1F5007F35D27A68CB084809012185
:1047D000013381401143796007EBC30257F833106E
:1047E000083AC5E9021247F83350CD603046BDE8BB
:1047F000F840FDF7EFB80CEB03025268D00710D475
:10480000194407F10800DCF80830834273D0DCF863
:104810000C20DA60936041F001036B606950D0E7CF
:10482000704741F00103B1F5007F44F8043CCCF837
:104830000010C9D3B1F5206F4FEA512348D28B093C
:1048400003F1390003F13802C300F818FB580838A7
:10485000984259D05A6822F003028A4202D99B68D2
:104860009842F7D1D868C5E902308560DD603046EE
:10487000BDE8F840FDF7AEB80CEB03025268D20772
:1048800063D40B44DCE90212CA60916043F0010278
:104890006A603046EB50BDE8F840FDF79BB80B442A
:1048A000D10707D454F8082CAD1A1344D5E90212E5
:1048B000CA60916043F001026A60284ABD601268D4
:1048C0009A4293D8264B30461968FFF7F5FE8DE7DC
:1048D000142B0AD9542B1FD80B0B03F16F0003F1D3
:1048E0006E02C300B1E719448DE703F15C0003F1E8
:1048F0005B02C300A9E741F00103C7E90455C5E91C
:1049000002006B60695071E779689210012404FA23
:1049100002F20A437A60A6E7B3F5AA7F06D8CB0B6A
:1049200003F1780003F17702C3008EE740F254529E
:10493000934206D88B0C03F17D0003F17C02C30087
:1049400083E74FF47E737E227FE741F001036B60C3
:10495000CCF800104AE700BF300400203C080020DB
:10496000DC0900202DE9F041884600F53877002663
:10497000D7E90154013D0FD4A389012B05F1FF357F
:1049800006D9B4F90E300133204601D0C0470643A2
:104990006B1C04F16804EFD13F68002FE8D130466A
:1049A000BDE8F0812DE9F8430746884600F53876E2
:1049B0004FF00009D6E90154013D11D4A389012B20
:1049C00005F1FF3508D9B4F90E300133214603D083
:1049D0003846C04749EA00096B1C04F16804EDD170
:1049E0003668002EE6D14846BDE8F883F0307047BF
:1049F0000048704730090020004870473009002007
:104A00002DE9F0418B890C46990796B008D504F141
:104A100043030122C4E90432236016B0BDE8F081EB
:104A2000B4F90E100029064627DB6A4603F062F946
:104A3000002821DB019D05F47045A5F50055B5FA68
:104A400085F54FF480686D094FF4006741463046A4
:104A5000FCF7C2FCB4F90C30F0B1204AF26343F029
:104A60008003C4F81480A3812060206135BB3B43E0
:104A7000A38116B0BDE8F081A38913F0800519D099
:104A80004FF0400841463046FCF7A6FC0025B4F93B
:104A90000C302F460028E0D19A05BED423F0030342
:104AA00004F1430243F002030121C4E90421A3817C
:104AB0002260B2E74FF480682F46C7E7B4F90E10C2
:104AC000304603F0A5FA10B9B4F90C30CFE7A3894A
:104AD00023F0030343F001031BB2C8E7A544000819
:104AE00070B50C46B1F90E10002996B015461E4659
:104AF00014DB6A4603F0FEF800280FDB019A02F48B
:104B00007042A2F50052B2FA82F24FF48063520969
:104B10004FF4006032602B6016B070BDB4F90C1019
:104B2000002311F08000336004D0402218462A6030
:104B300016B070BD4FF480632B6016B070BD00BF1F
:104B400001F0FF01102A2BDB10F0070F08D010F83E
:104B5000013B013A8B422DD010F0070F42B3F6D142
:104B6000F0B441EA012141EA014122F007047FF05B
:104B700000070023F0E80256083C85EA010586EAB2
:104B8000010685FA47F5A3FA87F586FA47F6A5FAEE
:104B900087F68EB9EED1F0BC01F0FF0102F00702FA
:104BA00032B110F8013B013A83EA010313B1F8D1A5
:104BB0000020704701387047002D06BF3546033886
:104BC000073815F0010F07D1013015F4807F02BFBF
:104BD000013015F4C03F0130F0BC0138704700BF10
:104BE000844641EA000313F003036DD1403A41D3F8
:104BF00051F8043B40F8043B51F8043B40F8043BB7
:104C000051F8043B40F8043B51F8043B40F8043BA6
:104C100051F8043B40F8043B51F8043B40F8043B96
:104C200051F8043B40F8043B51F8043B40F8043B86
:104C300051F8043B40F8043B51F8043B40F8043B76
:104C400051F8043B40F8043B51F8043B40F8043B66
:104C500051F8043B40F8043B51F8043B40F8043B56
:104C600051F8043B40F8043B51F8043B40F8043B46
:104C7000403ABDD2303211D351F8043B40F8043BE6
:104C800051F8043B40F8043B51F8043B40F8043B26
:104C900051F8043B40F8043B103AEDD20C3205D3F6
:104CA00051F8043B40F8043B043AF9D2043208D0EE
:104CB000D2071CBF11F8013B00F8013B01D30B8860
:104CC00003806046704700BF082A13D38B078DD03E
:104CD00010F003038AD0C3F10403D21ADB071CBF10
:104CE00011F8013B00F8013B80D331F8023B20F87A
:104CF000023B7BE7043AD9D3013A11F8013B00F8B3
:104D0000013BF9D20B7803704B7843708B7883703A
:104D100060467047C36C70B505460C464BB153F8FE
:104D2000240080B1026843F824200023C0E9033343
:104D300070BD21220421FCF7DFFA0346E864002855
:104D4000EDD1002070BD012101FA04F6721D920020
:104D50002846FCF7D1FA0028F3D0C0E90146E4E781
:104D600031B1C36C4A6853F82200086043F822103E
:104D7000704700BFF0B50C69064683B00D4601F1DF
:104D8000140E0020DEF800101FFA81FC02FB0C3329
:104D90004FEA134C090C02FB01CC01309BB203EB30
:104DA0000C4384424EF8043B4FEA1C43EADC3BB11F
:104DB000AA68A24207DD05EB8402013453612C612D
:104DC000284603B0F0BD6968019301313046FFF712
:104DD000A1FF019B0746B8B12A690193023205F190
:104DE0000C0192000C30FFF7FBFEF26C6968019B2E
:104DF00052F82100286042F821503D4605EB84021C
:104E0000013453612C61DBE7024B03483A46B5217C
:104E100002F020FEE4E400082CE500082DE9F84348
:104E20000C4628491F46164603F1080281FB023151
:104E3000092F4FEAE2730546C3EB610339DD4FF0FA
:104E4000010C00214FEA4C0C634501F10101F9DC32
:104E50002846FFF75FFF014668B3089B4361092EB0
:104E60004FF00103036112DC0A340926B7420BDD5F
:104E7000BE1B264414F8013B0A22303B2846FFF7AC
:104E800079FFA6420146F5D10846BDE8F88304F152
:104E90000909C846344418F8013B0A22303B284629
:104EA000FFF768FFA0450146F5D1A6F108044C4480
:104EB000DCE70021CCE70A46034B0448CE2102F090
:104EC000C9FD00BF398EE338E4E400082CE5000892
:104ED000030C1B04D3B90004102310F07F4F04BF50
:104EE0000002083310F0704F04BF0001043310F0CB
:104EF000404F04BF80000233002805DB10F0804FD4
:104F000003F1010308BF2023184670470023E4E79C
:104F1000036813F00702014607D0DA071FD4980789
:104F200021D55B080B600120704798B2A0B11046F4
:104F3000DAB20AB908301B0A1A0704BF1B09043089
:104F40009A0704BF9B080230DA0703D45B0800F11C
:104F5000010006D00B6070471B0C1020E8E7002012
:104F60007047202070479B080B600220704700BFED
:104F700038B5C36C04460D464BB15868B0B10268F1
:104F80005A6000220123C0E90435C26038BD2122E5
:104F90000421FCF7B1F90346E0640028EDD1094B88
:104FA000094800224FF4A07102F054FD1C22012197
:104FB0002046FCF7A1F90028F1D001220223C0E924
:104FC0000123DEE7E4E400082CE500082DE9F04FBA
:104FD0000E691569AE4285B08846144605DB2A463F
:104FE000234635460C4616469846A3686168AF19B5
:104FF000BB42B8BF0131FFF78DFE0190002800F0E1
:105000008780019B03F1140909EB870AD14505D27A
:105010004B46002243F8042B9A45FBD808F11408AC
:1050200008EB860B04F11403D8451A4603EB8505FB
:105030005FD22B1B153B23F0030304331534A54229
:1050400038BF0423CDE902A7AC461F46924605E0CF
:10505000000C29D1C34509F1040948D958F8040BBB
:1050600085B2002DF4D056464C46002356F8040B6A
:10507000216882B21FFA81FE05FB02EE000C0A0CC9
:10508000734405FB002202EB13429BB243EA024346
:10509000B44544F8043B4FEA1243E7D849F80730D7
:1050A00058F8040C000CD5D0D9F8003054461946F5
:1050B0004D4600222688090C00FB06110A449BB2CB
:1050C00043EA024345F8043B54F8046B2968360C64
:1050D0008BB200FB063303EB1243A4454FEA1342A5
:1050E000E8D8C34549F8073009F10409B6D8DDE925
:1050F00002A7002F02DC05E0013F03D05AF8043D6F
:10510000002BF9D0019B18461F6105B0BDE8F08F58
:10511000034B0448019A40F25D1102F09BFC00BF72
:10512000E4E400082CE5000812F003032DE9F04147
:105130001446064632D10D46A41020D0D6F8488039
:10514000B8F1000F33D0E3074FF0000707D4641025
:1051500015D0D8F80000A8B18046E307F7D542463D
:1051600029463046FFF732FFB5B16968F36C641029
:1051700053F821202A6043F821500546E9D12846FA
:10518000BDE8F081424641463046FFF71FFFC8F8B0
:10519000000007608046E0E70546D8E7013B0F4A7C
:1051A00052F823200023FFF7E5FD0546C4E701215F
:1051B0003046FFF7AFFD804640B1012340F2712237
:1051C000C0E904320023B0640360BCE7044B054827
:1051D00042464FF4A07102F03DFC00BFC8D5000864
:1051E000E4E400082CE500082DE9F0470C46904661
:1051F0002669A368496806EB6216751C9D4207463E
:105200004FEA621904DD5B009D4201F10101FADC05
:105210003846FFF77FFD8446002851D0B9F1000FD2
:1052200000F114000EDD09F105024FEA820E03467B
:105230000CEB8202002143F8041B9342FBD1AEF138
:1052400014031844216904F1140318F01F0803EB38
:1052500081012DD0C8F1200986464FF0000A1A6856
:1052600002FA08F242EA0A024EF8042B53F8042B21
:10527000994222FA09FAF2D80B1B153B23F00303DB
:10528000043304F11502914238BF0423BAF1000F30
:1052900018BF2E4640F803A0FB6C6268CCF8106083
:1052A00053F822102160604643F82240BDE8F087A1
:1052B000043853F8042B40F8042F9942F9D8EBE74F
:1052C000034B0448624640F2D91102F0C3FB00BF11
:1052D000E4E400082CE500080B6984460069C01A64
:1052E00016D10CF1140C14310CEB830210B401EB49
:1052F000830301E0944508D252F8044D53F8041D8D
:105300008C42F7D005D24FF0FF305DF8044B704768
:10531000704701205DF8044B704700BF2DE9F84F3E
:105320000F691369FF1A002F0E4690467AD101F1DA
:105330001405143202EB830205EB830301E09D4266
:1053400073D253F8041D52F8044DA142F7D064D330
:105350007168FFF7DFFC8146002872D03569D8F804
:105360001020C76008F1140E06F1140009F1140AA8
:1053700006F1100C0EEB820200EB85075646002169
:105380005EF8044B5CF804BFA3B211FA8BF1CB1AA0
:10539000210CC1EB1B4101EB23419BB243EA0143CA
:1053A000724546F8043B4FEA2141E9D8A2EB0804D4
:1053B000153C08F11508424524F0030606F10406E1
:1053C00038BF0426304424F0030238BF002287424D
:1053D0005244B24416D95646044654F8043B11FAD6
:1053E00083F10A1402EB134289B241EA0243A74255
:1053F00046F8043B4FEA2241EFD87A1E101A20F0FB
:105400000302524423B952F8043D013D002BFAD067
:10541000C9F810504846BDE8F88F33460127464684
:10542000984695E7F9DB002792E70021FFF772FC29
:10543000814668B101220023C9E904234846BDE83A
:10544000F88F074B07484A464FF4107102F002FBF1
:10545000034B04484A4640F2322102F0FBFA00BFF7
:10546000E4E400082CE500080F4B0B40A3F1507357
:10547000002B02DD0020194670475B42B3F1A07F8C
:105480004FEA235205DA4FF40023002043FA02F1D9
:105490007047143A1E2ADABF4FF0004323FA02F293
:1054A00001220021104670470000F07F02692DE9BB
:1054B000F04100F1140707EB8202A2F1040852F850
:1054C000046C3046FFF704FDC0F120030A280B608E
:1054D00036DD47451ED2B0F10B0352F8081C26D02A
:1054E000C3F1200C21FA0CF09E400643A2F1080003
:1054F00046F07F55874245F440153BD201FA03F050
:1055000052F80C3C23FA0CF303431C462046294670
:10551000BDE8F081B0F10B0308D006FA03F343F0C5
:105520007F55002345F440151C46EFE7194646F029
:105530007F550C4645F4401520462946BDE8F081CC
:10554000474538BF52F8082CC0F10B0326FA03F187
:1055500038BFDA4000F1150341F07F5528BF002223
:1055600006FA03F345F4401543EA020420462946AF
:10557000BDE8F08101FA03F31C46C7E7F0B501214D
:1055800083B016461F46FFF7C5FB054600284CD0E2
:10559000C7F30A54C7F313030CB143F48013002E6E
:1055A000019323D068460096FFF7B2FC034600281B
:1055B00037D0019AC0F1200102FA01F1C2400098EF
:1055C000019201436961002A14BF02210121AA61ED
:1055D0002961B4B1089AA4F233441C441460099AB6
:1055E000C3F135032846136003B0F0BD01A8FFF7EF
:1055F0008FFC019B0121C5E9041300F12003002C5D
:10560000E8D105EB8102A3F232431069089A1360D6
:10561000FFF75EFC099BC0EB41101860284603B001
:10562000F0BDDDE900126961CDE7034B03482A466E
:1056300040F20A3102F00EFAE4E400082CE500081A
:105640002DE9F04383B00F4669468046FFF72EFFF1
:1056500004460D46384601A9FFF728FFD8F8103058
:105660003A690F469A1ADDE90013CB1A03EB42138D
:10567000002B06460BDD05EB03594D4632463B46F3
:1056800020462946FBF77AF903B0BDE8F083C3EB67
:10569000033307EB03510F46F0E700BF172870B53F
:1056A00006460ADD0849094D0020002422462B4603
:1056B000FBF73AF8013EF9D170BD054B03EBC0068C
:1056C000D6E9040170BD00BF0000F03F0000244097
:1056D000C8D500080139491101F1010C116902F125
:1056E000140303EB81018B4200EB8C0C16D210B536
:1056F000A0F1040E53F8044B4EF8044F9942F9D828
:105700008B1A153B23F0030304331844844504D952
:10571000002340F8043B8445FBD810BD844505D9DF
:10572000002340F8043B8445FBD87047704700BF16
:1057300003694A11934200F1140009DA00EB830374
:1057400002E053F8042DCAB98342FAD8002070470A
:1057500011DD11F01F010ED010B450F8224000EB03
:10576000820324FA01F202FA01F18C420CD00120EA
:105770005DF8044B704700EB8203E5E701207047BA
:1057800053F8042D002AF2D18342F9D800205DF8A5
:10579000044B704710B50C46B1F90E1002F042FDF3
:1057A000002803DB236D0344236510BDA38923F484
:1057B0008053A38110BD00BF002070472DE9F04148
:1057C0000C46B1F90C101F46CB05054616460BD406
:1057D00021F48051A1813B46B4F90E10324628468F
:1057E000BDE8F04102F020B9B4F90E100223002206
:1057F00002F066FCB4F90C10EAE700BF10B50C46E5
:10580000B1F90E1002F05CFCA389421C0EBF23F418
:10581000805343F480532065A38110BDB1F90E106D
:1058200002F03EB9000000002DE9F04F2DED068B8F
:10583000BFB0884691460D9309EE100AFFF7D8F8DD
:10584000036814931846FCF71BF9B8F80C30139052
:10585000180604D5D8F81030002B00F0E7869FED2D
:10586000867B0023CDE922338DED107B2EAA0F938A
:1058700021929246129315930A9399F80030002BC7
:1058800000F087814C4604E014F8013F002B00F043
:10589000C580252BF8D1B4EB090540F0C3802378EF
:1058A000002B00F0768100234FF0FF3265788DF8F1
:1058B000673004F10109184609920B939B4609F1E0
:1058C0000109A5F12002582A00F2DA80DFE812F07F
:1058D0005E02D800D8005902D800D800D800D800FD
:1058E000D800D8000C025402D80017021C02D800BD
:1058F0004F025900590059005900590059005900E8
:1059000059005900D800D800D800D800D800D800D5
:10591000D800D800D800D80036026C01D8006C013D
:10592000D800D800D800D8006602D800D800780087
:10593000D800D800D800D800D8006800D800D80017
:105940007902D800D800D800D800D800D800D800F4
:10595000D800D800D8006B02CF016C016C016C013B
:105960009A02CF01D800D8000E03D800F8027A00BE
:10597000DD02D802D800B602D8006A00D800D800EC
:105980009F02A5F13002002119F8015B01EB8101B2
:1059900002EB4101A5F13002092AF5D90B9190E7FC
:1059A0004BF0100B1BF0200100F053810D9B0733CF
:1059B00023F00703596853F8080B0D9301230EE0F9
:1059C0004BF0100B1BF0200100F036810D9B0733CC
:1059D00023F00703596853F8080B0D9300230024A4
:1059E0008DF86740099A561C00F08F822BF08006D4
:1059F000079650EA010640F08682002A40F00E83A6
:105A0000002B40F03C851BF001030C9300F0AF85A8
:105A100030238DF8B7300DF1B7069BE2B4EB0905E2
:105A200000F0B780239B2B442393229B0133072B49
:105A3000CAE90095229305DC0AF1080A0A9B2B4467
:105A40000A932CE719EE100A21AA414602F066FFDC
:105A500018B90DF1B80AF1E7B046B8F80C3013F0F8
:105A6000400F0A9B18BF4FF0FF330A930A983FB0CC
:105A7000BDEC068BBDE8F08F0000000000000000C8
:105A8000002B40F0E987002D00F0838000238DF883
:105A9000673001238DF8905008930C9324AE0023B7
:105AA000CDF81CB009930E93079B13F0020302D0AC
:105AB000089A02320892079A12F0840B05D10B9AC9
:105AC0000899571A002F00F3A083239C9DF86720A4
:105AD0008AB1229A0DF1670101320134CAF800102F
:105AE000072A4FF0010123942292CAF8041000F310
:105AF000D9830AF1080A83B1229B1AAA013302341E
:105B0000CAF80020072B4FF0020223942293CAF810
